{
  "abi": [
    {
      "inputs": [
        {
          "internalType": "bytes",
          "name": "",
          "type": "bytes"
        }
      ],
      "name": "getValue",
      "outputs": [
        {
          "internalType": "bytes32",
          "name": "",
          "type": "bytes32"
        }
      ],
      "stateMutability": "view",
      "type": "function"
    }
  ],
  "bytecode": {
    "object": "0x608060405234801561001057600080fd5b5060f48061001f6000396000f3fe6080604052348015600f57600080fd5b506004361060285760003560e01c8063b6576bdf14602d575b600080fd5b603f60383660046051565b4292915050565b60405190815260200160405180910390f35b60008060208385031215606357600080fd5b823567ffffffffffffffff80821115607a57600080fd5b818501915085601f830112608d57600080fd5b813581811115609b57600080fd5b86602082850101111560ac57600080fd5b6020929092019691955090935050505056fea2646970667358221220464d449981dbd7e1071ddf7507de9c85dde3c1e3e2629445d203410eaac963b564736f6c63430008130033",
    "linkReferences": {}
  },
  "methodIdentifiers": {
    "getValue(bytes)": "b6576bdf"
  },
  "id": 152
}