{
  "abi": [
    {
      "inputs": [
        {
          "internalType": "string",
          "name": "",
          "type": "string"
        }
      ],
      "name": "OrderNotValid",
      "type": "error"
    },
    {
      "anonymous": false,
      "inputs": [
        {
          "indexed": true,
          "internalType": "address",
          "name": "owner",
          "type": "address"
        },
        {
          "components": [
            {
              "internalType": "contract IConditionalOrder",
              "name": "handler",
              "type": "address"
            },
            {
              "internalType": "bytes32",
              "name": "salt",
              "type": "bytes32"
            },
            {
              "internalType": "bytes",
              "name": "staticInput",
              "type": "bytes"
            }
          ],
          "indexed": false,
          "internalType": "struct IConditionalOrder.ConditionalOrderParams",
          "name": "params",
          "type": "tuple"
        }
      ],
      "name": "ConditionalOrderCreated",
      "type": "event"
    },
    {
      "inputs": [
        {
          "internalType": "address",
          "name": "owner",
          "type": "address"
        },
        {
          "internalType": "address",
          "name": "",
          "type": "address"
        },
        {
          "internalType": "bytes32",
          "name": "",
          "type": "bytes32"
        },
        {
          "internalType": "bytes",
          "name": "staticInput",
          "type": "bytes"
        },
        {
          "internalType": "bytes",
          "name": "",
          "type": "bytes"
        }
      ],
      "name": "getTradeableOrder",
      "outputs": [
        {
          "components": [
            {
              "internalType": "contract IERC20",
              "name": "sellToken",
              "type": "address"
            },
            {
              "internalType": "contract IERC20",
              "name": "buyToken",
              "type": "address"
            },
            {
              "internalType": "address",
              "name": "receiver",
              "type": "address"
            },
            {
              "internalType": "uint256",
              "name": "sellAmount",
              "type": "uint256"
            },
            {
              "internalType": "uint256",
              "name": "buyAmount",
              "type": "uint256"
            },
            {
              "internalType": "uint32",
              "name": "validTo",
              "type": "uint32"
            },
            {
              "internalType": "bytes32",
              "name": "appData",
              "type": "bytes32"
            },
            {
              "internalType": "uint256",
              "name": "feeAmount",
              "type": "uint256"
            },
            {
              "internalType": "bytes32",
              "name": "kind",
              "type": "bytes32"
            },
            {
              "internalType": "bool",
              "name": "partiallyFillable",
              "type": "bool"
            },
            {
              "internalType": "bytes32",
              "name": "sellTokenBalance",
              "type": "bytes32"
            },
            {
              "internalType": "bytes32",
              "name": "buyTokenBalance",
              "type": "bytes32"
            }
          ],
          "internalType": "struct GPv2Order.Data",
          "name": "order",
          "type": "tuple"
        }
      ],
      "stateMutability": "view",
      "type": "function"
    },
    {
      "inputs": [
        {
          "internalType": "bytes4",
          "name": "interfaceId",
          "type": "bytes4"
        }
      ],
      "name": "supportsInterface",
      "outputs": [
        {
          "internalType": "bool",
          "name": "",
          "type": "bool"
        }
      ],
      "stateMutability": "view",
      "type": "function"
    },
    {
      "inputs": [
        {
          "internalType": "address",
          "name": "owner",
          "type": "address"
        },
        {
          "internalType": "address",
          "name": "sender",
          "type": "address"
        },
        {
          "internalType": "bytes32",
          "name": "_hash",
          "type": "bytes32"
        },
        {
          "internalType": "bytes32",
          "name": "domainSeparator",
          "type": "bytes32"
        },
        {
          "internalType": "bytes32",
          "name": "ctx",
          "type": "bytes32"
        },
        {
          "internalType": "bytes",
          "name": "staticInput",
          "type": "bytes"
        },
        {
          "internalType": "bytes",
          "name": "offchainInput",
          "type": "bytes"
        },
        {
          "components": [
            {
              "internalType": "contract IERC20",
              "name": "sellToken",
              "type": "address"
            },
            {
              "internalType": "contract IERC20",
              "name": "buyToken",
              "type": "address"
            },
            {
              "internalType": "address",
              "name": "receiver",
              "type": "address"
            },
            {
              "internalType": "uint256",
              "name": "sellAmount",
              "type": "uint256"
            },
            {
              "internalType": "uint256",
              "name": "buyAmount",
              "type": "uint256"
            },
            {
              "internalType": "uint32",
              "name": "validTo",
              "type": "uint32"
            },
            {
              "internalType": "bytes32",
              "name": "appData",
              "type": "bytes32"
            },
            {
              "internalType": "uint256",
              "name": "feeAmount",
              "type": "uint256"
            },
            {
              "internalType": "bytes32",
              "name": "kind",
              "type": "bytes32"
            },
            {
              "internalType": "bool",
              "name": "partiallyFillable",
              "type": "bool"
            },
            {
              "internalType": "bytes32",
              "name": "sellTokenBalance",
              "type": "bytes32"
            },
            {
              "internalType": "bytes32",
              "name": "buyTokenBalance",
              "type": "bytes32"
            }
          ],
          "internalType": "struct GPv2Order.Data",
          "name": "",
          "type": "tuple"
        }
      ],
      "name": "verify",
      "outputs": [],
      "stateMutability": "view",
      "type": "function"
    }
  ],
  "bytecode": {
    "object": "0x608060405234801561001057600080fd5b50610aaf806100206000396000f3fe608060405234801561001057600080fd5b50600436106100415760003560e01c806301ffc9a71461004657806314a2a7841461006e578063b8296fc414610083575b600080fd5b61005961005436600461051e565b6100a3565b60405190151581526020015b60405180910390f35b61008161007c3660046105e5565b61013c565b005b6100966100913660046106d3565b610259565b6040516100659190610772565b60007fffffffff0000000000000000000000000000000000000000000000000000000082167fb8296fc400000000000000000000000000000000000000000000000000000000148061013657507fffffffff0000000000000000000000000000000000000000000000000000000082167f01ffc9a700000000000000000000000000000000000000000000000000000000145b92915050565b600061014d8b8b8989898989610259565b7fffffffffffffffffffffffffffffffffffffffffffffffffffffffffffffffe0810180517fd5a25ba2e97094ad7d83dc28a6572da797d6b3e7fc6663bd93efb789fc17e48982526101a0822091526040517f19010000000000000000000000000000000000000000000000000000000000008152600281018b9052602281019190915260429020909150891461024c57604080518082018252600c81527f696e76616c696420686173680000000000000000000000000000000000000000602082015290517fc8fc27250000000000000000000000000000000000000000000000000000000081526102439190600401610860565b60405180910390fd5b5050505050505050505050565b6040805161018081018252600080825260208201819052918101829052606081018290526080810182905260a0810182905260c0810182905260e081018290526101008101829052610120810182905261014081018290526101608101829052906102c6868601876108e0565b80516040517f70a0823100000000000000000000000000000000000000000000000000000000815273ffffffffffffffffffffffffffffffffffffffff8c81166004830152929350600092909116906370a0823190602401602060405180830381865afa15801561033b573d6000803e3d6000fd5b505050506040513d601f19601f8201168201806040525081019061035f919061099b565b905081608001518110156103d257604080518082018252601481527f62616c616e636520696e73756666696369656e74000000000000000000000000602082015290517fc8fc27250000000000000000000000000000000000000000000000000000000081526102439190600401610860565b604051806101800160405280836000015173ffffffffffffffffffffffffffffffffffffffff168152602001836020015173ffffffffffffffffffffffffffffffffffffffff168152602001836040015173ffffffffffffffffffffffffffffffffffffffff1681526020018281526020016001815260200161045884606001516104fc565b63ffffffff1681526020018360a001518152602001600081526020017ff3b277728b3fee749481eb3e0b3b48980dbbab78658fc419025cb16eee34677581526020016000151581526020017f5a28e9363bb942b639270062aa6bb295f434bcdfc42c97267bf003f272060dc981526020017f5a28e9363bb942b639270062aa6bb295f434bcdfc42c97267bf003f272060dc981525092505050979650505050505050565b6000818061050a81426109e3565b6105149190610a2d565b6101369190610a55565b60006020828403121561053057600080fd5b81357fffffffff000000000000000000000000000000000000000000000000000000008116811461056057600080fd5b9392505050565b73ffffffffffffffffffffffffffffffffffffffff8116811461058957600080fd5b50565b803561059781610567565b919050565b60008083601f8401126105ae57600080fd5b50813567ffffffffffffffff8111156105c657600080fd5b6020830191508360208285010111156105de57600080fd5b9250929050565b6000806000806000806000806000806102608b8d03121561060557600080fd5b61060f8b35610567565b8a35995060208b013561062181610567565b985060408b0135975060608b0135965060808b0135955060a08b013567ffffffffffffffff8082111561065357600080fd5b61065f8e838f0161059c565b909750955060c08d013591508082111561067857600080fd5b506106858d828e0161059c565b9094509250506101808b8d037fffffffffffffffffffffffffffffffffffffffffffffffffffffffffffffff200112156106be57600080fd5b60e08b0190509295989b9194979a5092959850565b600080600080600080600060a0888a0312156106ee57600080fd5b87356106f981610567565b9650602088013561070981610567565b955060408801359450606088013567ffffffffffffffff8082111561072d57600080fd5b6107398b838c0161059c565b909650945060808a013591508082111561075257600080fd5b5061075f8a828b0161059c565b989b979a50959850939692959293505050565b815173ffffffffffffffffffffffffffffffffffffffff168152610180810160208301516107b8602084018273ffffffffffffffffffffffffffffffffffffffff169052565b5060408301516107e0604084018273ffffffffffffffffffffffffffffffffffffffff169052565b50606083015160608301526080830151608083015260a083015161080c60a084018263ffffffff169052565b5060c083015160c083015260e083015160e0830152610100808401518184015250610120808401516108418285018215159052565b5050610140838101519083015261016092830151929091019190915290565b600060208083528351808285015260005b8181101561088d57858101830151858201604001528201610871565b5060006040828601015260407fffffffffffffffffffffffffffffffffffffffffffffffffffffffffffffffe0601f8301168501019250505092915050565b803563ffffffff8116811461059757600080fd5b600060c082840312156108f257600080fd5b60405160c0810181811067ffffffffffffffff8211171561093c577f4e487b7100000000000000000000000000000000000000000000000000000000600052604160045260246000fd5b6040526109488361058c565b81526109566020840161058c565b60208201526109676040840161058c565b6040820152610978606084016108cc565b60608201526080830135608082015260a083013560a08201528091505092915050565b6000602082840312156109ad57600080fd5b5051919050565b7f4e487b7100000000000000000000000000000000000000000000000000000000600052601160045260246000fd5b600063ffffffff80841680610a21577f4e487b7100000000000000000000000000000000000000000000000000000000600052601260045260246000fd5b92169190910492915050565b63ffffffff818116838216028082169190828114610a4d57610a4d6109b4565b505092915050565b63ffffffff818116838216019080821115610a7257610a726109b4565b509291505056fea264697066735822122081a659e17f4d42becdf4ad566d3ec1ca4d26036cf4d6698751a1dd8bf1e99b0564736f6c63430008130033",
    "linkReferences": {}
  },
  "methodIdentifiers": {
    "getTradeableOrder(address,address,bytes32,bytes,bytes)": "b8296fc4",
    "supportsInterface(bytes4)": "01ffc9a7",
    "verify(address,address,bytes32,bytes32,bytes32,bytes,bytes,(address,address,address,uint256,uint256,uint32,bytes32,uint256,bytes32,bool,bytes32,bytes32))": "14a2a784"
  },
  "id": 148
}