{
  "abi": [
    {
      "inputs": [
        {
          "internalType": "string",
          "name": "",
          "type": "string"
        }
      ],
      "name": "OrderNotValid",
      "type": "error"
    },
    {
      "anonymous": false,
      "inputs": [
        {
          "indexed": true,
          "internalType": "address",
          "name": "owner",
          "type": "address"
        },
        {
          "components": [
            {
              "internalType": "contract IConditionalOrder",
              "name": "handler",
              "type": "address"
            },
            {
              "internalType": "bytes32",
              "name": "salt",
              "type": "bytes32"
            },
            {
              "internalType": "bytes",
              "name": "staticInput",
              "type": "bytes"
            }
          ],
          "indexed": false,
          "internalType": "struct IConditionalOrder.ConditionalOrderParams",
          "name": "params",
          "type": "tuple"
        }
      ],
      "name": "ConditionalOrderCreated",
      "type": "event"
    },
    {
      "inputs": [
        {
          "internalType": "address",
          "name": "owner",
          "type": "address"
        },
        {
          "internalType": "address",
          "name": "",
          "type": "address"
        },
        {
          "internalType": "bytes32",
          "name": "",
          "type": "bytes32"
        },
        {
          "internalType": "bytes",
          "name": "staticInput",
          "type": "bytes"
        },
        {
          "internalType": "bytes",
          "name": "",
          "type": "bytes"
        }
      ],
      "name": "getTradeableOrder",
      "outputs": [
        {
          "components": [
            {
              "internalType": "contract IERC20",
              "name": "sellToken",
              "type": "address"
            },
            {
              "internalType": "contract IERC20",
              "name": "buyToken",
              "type": "address"
            },
            {
              "internalType": "address",
              "name": "receiver",
              "type": "address"
            },
            {
              "internalType": "uint256",
              "name": "sellAmount",
              "type": "uint256"
            },
            {
              "internalType": "uint256",
              "name": "buyAmount",
              "type": "uint256"
            },
            {
              "internalType": "uint32",
              "name": "validTo",
              "type": "uint32"
            },
            {
              "internalType": "bytes32",
              "name": "appData",
              "type": "bytes32"
            },
            {
              "internalType": "uint256",
              "name": "feeAmount",
              "type": "uint256"
            },
            {
              "internalType": "bytes32",
              "name": "kind",
              "type": "bytes32"
            },
            {
              "internalType": "bool",
              "name": "partiallyFillable",
              "type": "bool"
            },
            {
              "internalType": "bytes32",
              "name": "sellTokenBalance",
              "type": "bytes32"
            },
            {
              "internalType": "bytes32",
              "name": "buyTokenBalance",
              "type": "bytes32"
            }
          ],
          "internalType": "struct GPv2Order.Data",
          "name": "order",
          "type": "tuple"
        }
      ],
      "stateMutability": "view",
      "type": "function"
    },
    {
      "inputs": [
        {
          "internalType": "bytes4",
          "name": "interfaceId",
          "type": "bytes4"
        }
      ],
      "name": "supportsInterface",
      "outputs": [
        {
          "internalType": "bool",
          "name": "",
          "type": "bool"
        }
      ],
      "stateMutability": "view",
      "type": "function"
    },
    {
      "inputs": [
        {
          "internalType": "address",
          "name": "owner",
          "type": "address"
        },
        {
          "internalType": "address",
          "name": "sender",
          "type": "address"
        },
        {
          "internalType": "bytes32",
          "name": "_hash",
          "type": "bytes32"
        },
        {
          "internalType": "bytes32",
          "name": "domainSeparator",
          "type": "bytes32"
        },
        {
          "internalType": "bytes32",
          "name": "ctx",
          "type": "bytes32"
        },
        {
          "internalType": "bytes",
          "name": "staticInput",
          "type": "bytes"
        },
        {
          "internalType": "bytes",
          "name": "offchainInput",
          "type": "bytes"
        },
        {
          "components": [
            {
              "internalType": "contract IERC20",
              "name": "sellToken",
              "type": "address"
            },
            {
              "internalType": "contract IERC20",
              "name": "buyToken",
              "type": "address"
            },
            {
              "internalType": "address",
              "name": "receiver",
              "type": "address"
            },
            {
              "internalType": "uint256",
              "name": "sellAmount",
              "type": "uint256"
            },
            {
              "internalType": "uint256",
              "name": "buyAmount",
              "type": "uint256"
            },
            {
              "internalType": "uint32",
              "name": "validTo",
              "type": "uint32"
            },
            {
              "internalType": "bytes32",
              "name": "appData",
              "type": "bytes32"
            },
            {
              "internalType": "uint256",
              "name": "feeAmount",
              "type": "uint256"
            },
            {
              "internalType": "bytes32",
              "name": "kind",
              "type": "bytes32"
            },
            {
              "internalType": "bool",
              "name": "partiallyFillable",
              "type": "bool"
            },
            {
              "internalType": "bytes32",
              "name": "sellTokenBalance",
              "type": "bytes32"
            },
            {
              "internalType": "bytes32",
              "name": "buyTokenBalance",
              "type": "bytes32"
            }
          ],
          "internalType": "struct GPv2Order.Data",
          "name": "",
          "type": "tuple"
        }
      ],
      "name": "verify",
      "outputs": [],
      "stateMutability": "view",
      "type": "function"
    }
  ],
  "bytecode": {
    "object": "0x608060405234801561001057600080fd5b50610f82806100206000396000f3fe608060405234801561001057600080fd5b50600436106100415760003560e01c806301ffc9a71461004657806314a2a7841461006e578063b8296fc414610083575b600080fd5b610059610054366004610858565b6100a3565b60405190151581526020015b60405180910390f35b61008161007c36600461090f565b61013c565b005b6100966100913660046109fd565b610259565b6040516100659190610a9c565b60007fffffffff0000000000000000000000000000000000000000000000000000000082167fb8296fc400000000000000000000000000000000000000000000000000000000148061013657507fffffffff0000000000000000000000000000000000000000000000000000000082167f01ffc9a700000000000000000000000000000000000000000000000000000000145b92915050565b600061014d8b8b8989898989610259565b7fffffffffffffffffffffffffffffffffffffffffffffffffffffffffffffffe0810180517fd5a25ba2e97094ad7d83dc28a6572da797d6b3e7fc6663bd93efb789fc17e48982526101a0822091526040517f19010000000000000000000000000000000000000000000000000000000000008152600281018b9052602281019190915260429020909150891461024c57604080518082018252600c81527f696e76616c696420686173680000000000000000000000000000000000000000602082015290517fc8fc27250000000000000000000000000000000000000000000000000000000081526102439190600401610b8a565b60405180910390fd5b5050505050505050505050565b6040805161018081018252600080825260208201819052918101829052606081018290526080810182905260a0810182905260c0810182905260e081018290526101008101829052610120810182905261014081018290526101608101829052906102c686860187610c0f565b905060006102d48a83610475565b9050600081604001511161034757604080518082018252600a81527f6e6f742066756e64656400000000000000000000000000000000000000000000602082015290517fc8fc27250000000000000000000000000000000000000000000000000000000081526102439190600401610b8a565b604051806101800160405280826000015173ffffffffffffffffffffffffffffffffffffffff168152602001826020015173ffffffffffffffffffffffffffffffffffffffff168152602001600073ffffffffffffffffffffffffffffffffffffffff16815260200182604001518152602001826060015181526020016103d184604001516106f0565b63ffffffff16815260200183608001518152602001600081526020017ff3b277728b3fee749481eb3e0b3b48980dbbab78658fc419025cb16eee34677581526020016000151581526020017f5a28e9363bb942b639270062aa6bb295f434bcdfc42c97267bf003f272060dc981526020017f5a28e9363bb942b639270062aa6bb295f434bcdfc42c97267bf003f272060dc981525092505050979650505050505050565b604080516080810182526000808252602082018190529181018290526060810191909152815160208301516040517f70a0823100000000000000000000000000000000000000000000000000000000815273ffffffffffffffffffffffffffffffffffffffff8681166004830152600091908416906370a0823190602401602060405180830381865afa158015610510573d6000803e3d6000fd5b505050506040513d601f19601f820116820180604052508101906105349190610cbd565b6040517f70a0823100000000000000000000000000000000000000000000000000000000815273ffffffffffffffffffffffffffffffffffffffff88811660048301529192506000918416906370a0823190602401602060405180830381865afa1580156105a6573d6000803e3d6000fd5b505050506040513d601f19601f820116820180604052508101906105ca9190610cbd565b9050806105d8858486610712565b11156106645760405180608001604052808573ffffffffffffffffffffffffffffffffffffffff1681526020018473ffffffffffffffffffffffffffffffffffffffff168152602001838152602001612710886060015161271061063c9190610d05565b610647888789610712565b6106519190610d18565b61065b9190610d5e565b905294506106e6565b60405180608001604052808473ffffffffffffffffffffffffffffffffffffffff1681526020018573ffffffffffffffffffffffffffffffffffffffff16815260200182815260200161271088606001516127106106c29190610d05565b6106cd87868a610712565b6106d79190610d18565b6106e19190610d5e565b905294505b5050505092915050565b600081806106fe8142610d72565b6107089190610d95565b6101369190610dbd565b6000808473ffffffffffffffffffffffffffffffffffffffff1663313ce5676040518163ffffffff1660e01b8152600401602060405180830381865afa158015610760573d6000803e3d6000fd5b505050506040513d601f19601f820116820180604052508101906107849190610de1565b905060008373ffffffffffffffffffffffffffffffffffffffff1663313ce5676040518163ffffffff1660e01b8152600401602060405180830381865afa1580156107d3573d6000803e3d6000fd5b505050506040513d601f19601f820116820180604052508101906107f79190610de1565b90508060ff168260ff16111561082d576108118183610e04565b61081c90600a610f3d565b6108269086610d5e565b925061084f565b6108378282610e04565b61084290600a610f3d565b61084c9086610d18565b92505b50509392505050565b60006020828403121561086a57600080fd5b81357fffffffff000000000000000000000000000000000000000000000000000000008116811461089a57600080fd5b9392505050565b73ffffffffffffffffffffffffffffffffffffffff811681146108c357600080fd5b50565b60008083601f8401126108d857600080fd5b50813567ffffffffffffffff8111156108f057600080fd5b60208301915083602082850101111561090857600080fd5b9250929050565b6000806000806000806000806000806102608b8d03121561092f57600080fd5b6109398b356108a1565b8a35995060208b013561094b816108a1565b985060408b0135975060608b0135965060808b0135955060a08b013567ffffffffffffffff8082111561097d57600080fd5b6109898e838f016108c6565b909750955060c08d01359150808211156109a257600080fd5b506109af8d828e016108c6565b9094509250506101808b8d037fffffffffffffffffffffffffffffffffffffffffffffffffffffffffffffff200112156109e857600080fd5b60e08b0190509295989b9194979a5092959850565b600080600080600080600060a0888a031215610a1857600080fd5b8735610a23816108a1565b96506020880135610a33816108a1565b955060408801359450606088013567ffffffffffffffff80821115610a5757600080fd5b610a638b838c016108c6565b909650945060808a0135915080821115610a7c57600080fd5b50610a898a828b016108c6565b989b979a50959850939692959293505050565b815173ffffffffffffffffffffffffffffffffffffffff16815261018081016020830151610ae2602084018273ffffffffffffffffffffffffffffffffffffffff169052565b506040830151610b0a604084018273ffffffffffffffffffffffffffffffffffffffff169052565b50606083015160608301526080830151608083015260a0830151610b3660a084018263ffffffff169052565b5060c083015160c083015260e083015160e083015261010080840151818401525061012080840151610b6b8285018215159052565b5050610140838101519083015261016092830151929091019190915290565b600060208083528351808285015260005b81811015610bb757858101830151858201604001528201610b9b565b5060006040828601015260407fffffffffffffffffffffffffffffffffffffffffffffffffffffffffffffffe0601f8301168501019250505092915050565b803563ffffffff81168114610c0a57600080fd5b919050565b600060a08284031215610c2157600080fd5b60405160a0810181811067ffffffffffffffff82111715610c6b577f4e487b7100000000000000000000000000000000000000000000000000000000600052604160045260246000fd5b6040528235610c79816108a1565b81526020830135610c89816108a1565b6020820152610c9a60408401610bf6565b604082015260608301356060820152608083013560808201528091505092915050565b600060208284031215610ccf57600080fd5b5051919050565b7f4e487b7100000000000000000000000000000000000000000000000000000000600052601160045260246000fd5b8082018082111561013657610136610cd6565b808202811582820484141761013657610136610cd6565b7f4e487b7100000000000000000000000000000000000000000000000000000000600052601260045260246000fd5b600082610d6d57610d6d610d2f565b500490565b600063ffffffff80841680610d8957610d89610d2f565b92169190910492915050565b63ffffffff818116838216028082169190828114610db557610db5610cd6565b505092915050565b63ffffffff818116838216019080821115610dda57610dda610cd6565b5092915050565b600060208284031215610df357600080fd5b815160ff8116811461089a57600080fd5b60ff828116828216039081111561013657610136610cd6565b600181815b80851115610e7657817fffffffffffffffffffffffffffffffffffffffffffffffffffffffffffffffff04821115610e5c57610e5c610cd6565b80851615610e6957918102915b93841c9390800290610e22565b509250929050565b600082610e8d57506001610136565b81610e9a57506000610136565b8160018114610eb05760028114610eba57610ed6565b6001915050610136565b60ff841115610ecb57610ecb610cd6565b50506001821b610136565b5060208310610133831016604e8410600b8410161715610ef9575081810a610136565b610f038383610e1d565b807fffffffffffffffffffffffffffffffffffffffffffffffffffffffffffffffff04821115610f3557610f35610cd6565b029392505050565b600061089a60ff841683610e7e56fea2646970667358221220c953943763ce3d3e068c860b503cfb8ae26ef3b1c526cf1e6dad8098e70e35f764736f6c63430008130033",
    "linkReferences": {}
  },
  "methodIdentifiers": {
    "getTradeableOrder(address,address,bytes32,bytes,bytes)": "b8296fc4",
    "supportsInterface(bytes4)": "01ffc9a7",
    "verify(address,address,bytes32,bytes32,bytes32,bytes,bytes,(address,address,address,uint256,uint256,uint32,bytes32,uint256,bytes32,bool,bytes32,bytes32))": "14a2a784"
  },
  "id": 146
}